:020000040800F2
:1000000000000220AD0F0008250B00082D0B000892
:10001000350B00083D0B0008450B000800000000F0
:100020000000000000000000000000004D0B000870
:100030005B0B000800000000690B0008770B00084C
:10004000FD0F0008FD0F0008FD0F0008FD0F000860
:10005000FD0F0008FD0F0008FD0F0008FD0F000850
:10006000FD0F0008FD0F0008FD0F0008FD0F000840
:10007000FD0F0008FD0F0008FD0F0008FD0F000830
:10008000FD0F0008FD0F0008FD0F0008FD0F000820
:10009000FD0F0008FD0F0008FD0F0008FD0F000810
:1000A000FD0F0008FD0F0008FD0F0008FD0F000800
:1000B000FD0F0008FD0F0008FD0F0008FD0F0008F0
:1000C000FD0F0008FD0F0008FD0F0008FD0F0008E0
:1000D000FD0F0008850B0008FD0F0008FD0F00084C
:1000E000FD0F0008FD0F0008FD0F0008FD0F0008C0
:1000F000FD0F0008FD0F0008FD0F0008FD0F0008B0
:10010000FD0F0008FD0F0008FD0F0008FD0F00089F
:10011000FD0F0008FD0F0008FD0F0008FD0F00088F
:10012000FD0F0008FD0F0008FD0F0008FD0F00087F
:10013000FD0F0008FD0F0008FD0F0008FD0F00086F
:10014000FD0F0008FD0F0008FD0F0008FD0F00085F
:10015000990B0008FD0F0008AD0B0008FD0F00080B
:10016000FD0F0008FD0F0008FD0F0008FD0F00083F
:10017000FD0F0008FD0F0008FD0F00080000000043
:08018000FD0F0008FD0F00084F
:1001900010B5054C237833B9044B13B10448AFF3C1
:1001A00000800123237010BD6C00002000000000BF
:1001B0003C69000808B5034B1BB103490348AFF382
:1001C000008008BD00000000700000203C690008AD
:1001D00001F0FF01102A2BDB10F0070F08D010F8F8
:1001E000013B013A8B422DD010F0070F42B3F6D1FC
:1001F000F0B441EA012141EA014122F007047FF015
:1002000000070023F0E80256083C85EA010586EA6B
:10021000010685FA47F5A3FA87F586FA47F6A5FAA7
:1002200087F68EB9EED1F0BC01F0FF0102F00702B3
:1002300032B110F8013B013A83EA010313B1F8D15E
:100240000020704701387047002D06BF354603383F
:10025000073815F0010F07D1013015F4807F02BF78
:10026000013015F4C03F0130F0BC0138704700BFC9
:1002700053B94AB9002908BF00281CBF4FF0FF310D
:100280004FF0FF3000F06AB9ADF1080C6DE904CE13
:1002900000F006F8DDF804E0DDE9022304B0704761
:1002A0002DE9F047089D0C46002B4ED194468C4515
:1002B0008646B2FA82F262D94AB1C2F12003914075
:1002C00020FA03F30CFA02FC194300FA02FE4FEA8B
:1002D0001C471FFA8CF6B1FBF7F44FEA1E4307FBED
:1002E000141143EA014304FB06F199420AD91CEBBD
:1002F000030304F1FF3080F01281994240F20F8134
:10030000023C6344591A1FFA8EF3B1FBF7F007FB66
:10031000101143EA014300FB06F69E420AD91CEB8A
:10032000030300F1FF3180F0FC809E4240F2F9802F
:10033000634402389B1B40EA044000211DB1D340B6
:100340000022C5E90032BDE8F0878B4205D90DB126
:10035000C5E9000100210846F5E7B3FA83F1002959
:1003600046D1A34202D39042C0F0F080861A64EBDB
:1003700003030120002DE6D0C5E90063E3E7002A6E
:1003800040F09080A1EB0C044FEA1C481FFA8CF758
:100390000121B4FBF8F64FEA1E4308FB164443EA7A
:1003A000044307FB06F0984208D91CEB030306F14F
:1003B000FF3402D2984200F2CD8026461C1A1FFA62
:1003C0008EF3B4FBF8F008FB104443EA044300FB4F
:1003D00007F79F4208D91CEB030300F1FF3402D258
:1003E0009F4200F2B0802046DB1B40EA0640A5E7B2
:1003F000C1F120068B4022FA06F71F4320FA06FCC3
:1004000004FA01F343EA0C03F44000FA01F8380C53
:100410004FEA1349B4FBF0FE1FFA87FC00FB1E44B1
:1004200049EA04440EFB0CF9A14502FA01F20AD98B
:100430003C190EF1FF3A80F08480A14540F28180A2
:10044000AEF1020E3C44A4EB09041FFA83F9B4FB9D
:10045000F0F300FB134449EA044403FB0CFCA445FD
:1004600007D93C1903F1FF3067D2A44565D9023B97
:100470003C4443EA0E40A0FB0293A4EB0C049C42D4
:10048000CE469C4651D34ED055B1B8EB0E0364EB2B
:100490000C0404FA06F6CB401E43CC40C5E90064C8
:1004A000002150E7C2F1200320FA03F10CFA02FC0C
:1004B00024FA03F394400C434FEA1C4800FA02FE6E
:1004C0001FFA8CF7B3FBF8F008FB1031230C43EA5A
:1004D000014300FB07F1994208D91CEB030300F12B
:1004E000FF362CD299422AD9023863445B1AA4B24F
:1004F000B3FBF8F108FB113344EA034401FB07F3B3
:10050000A34208D91CEB040401F1FF3613D2A34225
:1005100011D902396444E41A41EA004139E704463A
:10052000F0E6084606E7C845AED2B9EB020E63EB2B
:10053000070C0138A8E73146EDE7034699E7304656
:10054000D4E7D6467FE7634402384DE706462346A4
:1005500008460FE7023E634430E700BF704700BF24
:1005600080B582B000AF00237B60104B1B6B0F4A3D
:1005700043F4800313630D4B1B6B03F480037B6018
:100580007B6800220021442001F0FDFA442001F0A4
:1005900016FB00220021462001F0F5FA462001F06A
:1005A0000EFB00BF0837BD4680BD00BF00380240CB
:1005B00080B58CB000AF07F11C0300221A605A60AE
:1005C0009A60DA601A610023BB61494B1B6B484A91
:1005D00043F080031363464B1B6B03F08003BB6146
:1005E000BB6900237B61424B1B6B414A43F02003F4
:1005F00013633F4B1B6B03F020037B617B6900237C
:100600003B613B4B1B6B3A4A43F002031363384B8D
:100610001B6B03F002033B613B690023FB60344B1F
:100620001B6B334A43F008031363314B1B6B03F01E
:100630000803FB60FB680023BB602D4B1B6B2C4A3F
:1006400043F0040313632A4B1B6B03F00403BB60EA
:10065000BB6800237B60264B1B6B254A43F00103DC
:100660001363234B1B6B03F001037B607B68002249
:100670004FF400511F4802F05BF800224FF48071E4
:100680001D4802F055F8002220211C4802F050F8C5
:100690004FF40053FB6101233B6200237B62002384
:1006A000BB6207F11C031946124801F0A5FE4FF486
:1006B0008073FB6101233B6202237B620023BB62E8
:1006C00007F11C0319460C4801F096FE2023FB613C
:1006D00001233B6202237B620023BB6207F11C0300
:1006E0001946064801F088FE00BF3037BD4680BD80
:1006F0000038024000140240000C02400004024096
:1007000080B500AF124B134A1A60114B124A5A605F
:100710000F4B00229A600E4B0022DA600C4B4FF414
:1007200080421A610A4B00225A61094B00229A61E9
:10073000074B0022DA61064B00221A62044802F0DD
:100740002BF80346002B01D000F040F900BF80BD1C
:100750008800002000540040A086010080B58AB0C7
:1007600000AF786007F1140300221A605A609A60A3
:10077000DA601A617B681B68194A93422BD1002307
:100780003B61184B1B6B174A43F002031363154B75
:100790001B6B03F002033B613B69C0237B611223A7
:1007A000BB610023FB6103233B6204237B6207F1EF
:1007B000140319460C4801F01FFE0023FB60094B8F
:1007C0001B6C084A43F400131364064B1B6C03F4C0
:1007D0000013FB60FB6800BF2837BD4680BD00BF2B
:1007E00000540040003802400004024080B582B04E
:1007F00000AF7860391D4FF6FF730122034803F004
:1008000041FF7B6818460837BD4680BD3C0100208B
:1008100080B582B000AF78600B467B807B680D4A64
:10082000934213D17B88DAB20B4B1A700B4B012227
:100830001A7080220A49074803F0AFFF094B1B6872
:100840001A68084B1B6822F008021A6000BF0837BC
:10085000BD4680BD3C01002098030020DC00002044
:10086000980200202C02002080B500AF01F01AF899
:1008700000F04EF8FFF79CFEFFF772FE00F056FA0C
:1008800000F0AAF800F07CFAFFF73AFF802217493F
:10089000174803F082FF01222021164801F048FF8B
:1008A000154800F04BFC01224FF48071134801F011
:1008B0003FFF9FED130A06226421012000F044FE51
:1008C000104805F0D7F94FF400510F4801F049FFE7
:1008D0004FF4FA7001F058F80C4B1B78012BF2D151
:1008E0000A4B00221A7000F023FEECE79802002069
:1008F0003C010020000402408C020020000C024059
:10090000000016435469000800140240DC00002077
:1009100080B594B000AF07F12003302200211846C3
:1009200005F088FA07F10C0300221A605A609A60F9
:10093000DA601A610023BB60224B1B6C214A43F032
:10094000805313641F4B1B6C03F08053BB60BB6868
:1009500000237B601C4B1B681B4A43F480431360DD
:10096000194B1B6803F480437B607B6802233B6266
:100970000123FB6210233B630023BB6307F12003C9
:10098000184602F02DFF0346002B01D000F01EF8A0
:100990000F23FB6000233B6100237B610023BB61CD
:1009A0000023FB6107F10C030021184603F090F9C6
:1009B0000346002B01D000F009F800BF5037BD46B8
:1009C00080BD00BF003802400070004080B400AF1E
:1009D00072B600BF00BFFDE780B500AF174B184AE5
:1009E0001A60164B4FF482725A60144B00229A60C0
:1009F000124B0022DA60114B00221A610F4B0022C9
:100A00005A610E4B4FF400729A610C4B3022DA613E
:100A10000A4B00221A62094B00225A62074B00223D
:100A20009A62064B0A22DA62044803F031FB03465D
:100A3000002B01D0FFF7CAFF00BF80BDE0000020FF
:100A40000038004080B58AB000AF786007F1140329
:100A500000221A605A609A60DA601A617B681B682B
:100A6000194A93422CD100233B61184B1B6C174A47
:100A700043F480431364154B1B6C03F480433B61C8
:100A80003B690023FB60114B1B6B104A43F00203D0
:100A900013630E4B1B6B03F00203FB60FB684FF408
:100AA00060437B610223BB610023FB6103233B6244
:100AB00005237B6207F114031946054801F09CFCED
:100AC00000BF2837BD4680BD0038004000380240D6
:100AD0000004024080B483B000AF00237B60104B61
:100AE0005B6C0F4A43F4804353640D4B5B6C03F41F
:100AF00080437B607B6800233B60094B1B6C084A8A
:100B000043F080531364064B1B6C03F080533B602F
:100B10003B6800BF0C37BD465DF8047B704700BFE3
:100B20000038024080B400AF00BFFDE780B400AFE2
:100B300000BFFDE780B400AF00BFFDE780B400AFA9
:100B400000BFFDE780B400AF00BFFDE780B400AF99
:100B500000BFBD465DF8047B704780B400AF00BFA6
:100B6000BD465DF8047B704780B400AF00BFBD4652
:100B70005DF8047B704780B500AF00F0E5FE00BF74
:100B800080BD000080B500AF024803F063FE00BFE7
:100B900080BD00BF3C01002080B500AF024801F0DD
:100BA000C1F900BF80BD00BF2C02002080B500AF9E
:100BB000024801F0B7F900BF80BD00BFCC010020A2
:100BC00080B586B000AFF860B9607A6000237B61C1
:100BD0000AE0AFF300800146BB685A1CBA60CAB293
:100BE0001A707B6901337B617A697B689A42F0DB1A
:100BF0007B6818461837BD4680BD80B586B000AF0B
:100C0000F860B9607A6000237B6109E0BB685A1C18
:100C1000BA601B781846FFF7E9FD7B6901337B61F9
:100C20007A697B689A42F1DB7B6818461837BD46C3
:100C300080BD80B483B000AF78604FF0FF331846BA
:100C40000C37BD465DF8047B704780B483B000AFBD
:100C5000786039603B684FF400525A6000231846B0
:100C60000C37BD465DF8047B704780B483B000AF9D
:100C70007860012318460C37BD465DF8047B704749
:100C800080B485B000AFF860B9607A600023184680
:100C90001437BD465DF8047B7047000080B586B010
:100CA00000AF7860144A154BD31A7B617B693B61B6
:100CB000134B1B68002B02D1114B124A1A60104BC8
:100CC0001A687B6813443A699A4207D205F000F922
:100CD00003460C221A604FF0FF3309E0084B1B68F3
:100CE000FB60074B1A687B681344054A1360FB6876
:100CF00018461837BD4680BD0000022000040000E1
:100D000038010020F804002080B400AF064BD3F86F
:100D10008830054A43F47003C2F8883000BFBD46EE
:100D20005DF8047B704700BF00ED00E080B500AFC8
:100D3000114B124A1A60104B4FF4E1325A600E4BBD
:100D400000229A600C4B0022DA600B4B00221A61E1
:100D5000094B0C225A61084B00229A61064B002273
:100D6000DA61054803F03EFC0346002B01D0FFF793
:100D70002DFE00BF80BD00BF3C01002000100140DF
:100D800080B500AF114B124A1A60104B4FF4E1329C
:100D90005A600E4B00229A600C4B0022DA600B4B1B
:100DA00000221A61094B0C225A61084B00229A61F9
:100DB000064B0022DA61054803F014FC0346002BC1
:100DC00001D0FFF703FE00BF80BD00BF84010020FB
:100DD0000014014080B58CB000AF786007F11C03AF
:100DE00000221A605A609A60DA601A617B681B6898
:100DF000654A934240F092800023BB61634B5B6C79
:100E0000624A43F010035364604B5B6C03F01003C1
:100E1000BB61BB6900237B615C4B1B6B5B4A43F08E
:100E200001031363594B1B6B03F001037B617B6967
:100E30004FF4C063FB6102233B6200237B62032308
:100E4000BB620723FB6207F11C031946504801F0FF
:100E5000D3FA504B504A1A604E4B4FF000625A6022
:100E60004C4B40229A604B4B0022DA60494B4FF4C6
:100E700080621A61474B00225A61464B00229A61F8
:100E8000444B0022DA61434B00221A62414B00229C
:100E90005A62404800F0AEFE0346002B01D0FFF737
:100EA00095FD7B683B4A9A633A4A7B6893633B4B68
:100EB0003B4A1A60394B4FF000625A60374B0022B0
:100EC0009A60364B0022DA60344B4FF480621A612C
:100ED000324B00225A61314B00229A612F4B002283
:100EE000DA612E4B00221A622C4B00225A622B48E8
:100EF00000F080FE0346002B01D0FFF767FD7B6802
:100F0000264ADA63254A7B68936300220021252064
:100F100000F039FE252000F052FE30E07B681B68AF
:100F2000204A93422BD100233B61184B5B6C174A3C
:100F300043F020035364154B5B6C03F020033B61CB
:100F40003B690023FB60114B1B6B104A43F0040309
:100F500013630E4B1B6B03F00403FB60FB68C023A1
:100F6000FB6102233B6200237B620323BB620823F5
:100F7000FB6207F11C0319460B4801F03DFA00BF64
:100F80003037BD4680BD00BF001001400038024030
:100F900000000240CC010020B86402402C02002076
:100FA000886402400014014000080240DFF834D099
:100FB000FFF7AAFE0C480D490D4A002302E0D45861
:100FC000C4500433C4188C42F9D30A4A0A4C002393
:100FD00001E013600432A242FBD304F07FFFFFF76D
:100FE00043FC704700000220000000206C0000203D
:100FF000486A00086C000020F4040020FEE70000AE
:1010000080B584B000AF03460A46FB711346BB713E
:10101000FB799BB21B02FB81BB79BB81FA89BB893F
:1010200013437B817B891946034804F0BBFD7B8910
:1010300018461037BD4680BD8069000880B584B071
:1010400000AF0346FB710B46BB7113467B71FB7906
:101050004433FB71FB799BB25B02FB81BB799BB292
:101060005B01BB817B799BB203F01F037B81FA8913
:10107000BB8913439AB27B8913433B813B89194651
:10108000034804F08FFD3B8918461037BD4680BDEC
:10109000C069000880B588B004AFF860B9607A60B4
:1010A000FB6899B27B68BA6813444FF47A72029273
:1010B00001220192009301230A46A0210F4801F06A
:1010C000AFFC0A2000F060FCFB689BB2803399B251
:1010D0007B68BA6813444FF47A720292012201923B
:1010E000009301230A46A021044801F099FC0A203C
:1010F00000F04AFC00BF1037BD4680BD88000020CC
:1011000080B588B004AFF860B9607A60FB6899B2C6
:101110007B68BA6813444FF47A72029201220192FA
:10112000009301230A46A121034801F073FD00BF8B
:101130001037BD4680BD00BF8800002080B584B058
:1011400000AF78601F211120FFF75AFF03461A46AF
:101150007B681A8005220321E920FFF76FFF034611
:101160001A467B685A807B689A887B689A807B687D
:10117000DA887B68DA807B681A897B681A810A21A1
:10118000786800F02DFB03461A467B685A810023DD
:10119000FB6007E0FA687968F868FFF77BFFFB6897
:1011A0000133FB60FB680B2BF4D900BF00BF103785
:1011B000BD4680BD2DE9F04389B000AFBA607B60C9
:1011C0000346FB730B46BB736B461E46674B1A7890
:1011D00097F840301344DAB2BB7B1344DAB297F885
:1011E000443013447B77797F0B46013BBB61CBB224
:1011F0000022984691464FF000024FF000034FEA5C
:10120000C90343EA58734FEAC802CBB200221C4616
:1012100015464FF000024FF00003EB0043EA547311
:10122000E2000B460733DB08DB00ADEB030D6B463A
:1012300000337B610023BB770023FB770CE0FB7F4F
:10124000BA681A44BB7F11787A69D154FB7F0133A5
:10125000FB77BB7F0133BB77FA7F97F840309A4228
:10126000EDD30023FB770BE0FA7FBB7F4049895C1D
:101270007A69D154FB7F0133FB77BB7F0133BB77A6
:101280003A4B1B78FA7F9A42EED3BB7B042B06D0F5
:10129000042B37DC012B24D0022B11D032E0334B4E
:1012A0001B781946324800F05BFA03463B61BB7F6E
:1012B0007A6913443A691A60BB7F0433BB7722E032
:1012C0002A4B1B7819462A4800F08AFA03463B61EC
:1012D000BB7F7A6913443A8A1A80BB7F0233BB779B
:1012E00011E0224B1B781946214800F0B8FA03465A
:1012F0003B61BB7F7A6913443A7C1A70BB7F013330
:10130000BB7700E000BF0023FB770CE0FB7F7A682F
:101310001A44BB7F11787A69D154FB7F0133FB7784
:10132000BB7F0133BB77FA7F97F844309A42EDD305
:10133000FB7B002B02D0012B09D011E07B7F9AB2FE
:101340004FF6FF7379690B4803F09CF908E07B7F47
:101350009AB24FF6FF737969074802F022FF00BF87
:10136000B54600BF2437BD46BDE8F0839903002091
:10137000180300203C010020E000002080B485B06C
:1013800000AF78600B46FB700023FB600EE00D4A57
:10139000FB6813441A78FB6879680B441B789A42FF
:1013A00001D0002307E0FB680133FB60FB78FA689B
:1013B0009A42ECDB012318461437BD465DF8047BE6
:1013C000704700BF9802002080B485B000AF7860FD
:1013D0000B46FB700023FB6013E00F4B1B781A4693
:1013E000FB78D21AFB6813440C4AD25CFB6879681C
:1013F0000B441B789A4201D0002307E0FB680133BD
:10140000FB60FB78FA689A42E7DB01231846143741
:10141000BD465DF8047B70479803002098020020C9
:1014200080B582B000AF02211948FFF7A7FF03463D
:10143000002B28D000211748FFF7C6FF0346002BDA
:1014400021D0154B7B607B681A78144B1A707B682F
:101450005A78124B5A707B685A88104B5A807B68B6
:101460009A880E4B9A807B68DA880C4BDA807B680E
:101470005B880B2B05D8094B00225A80074B0C22A6
:101480009A80012300E0002318460837BD4680BD3E
:10149000040000209C0300209A0200209C030020EE
:1014A00080B584B002AF1B4B81221A701A4B9B8807
:1014B000DBB20633DAB2174B5A70184B164A528811
:1014C0001A800023FB800CE0134B5B881A46FB88D4
:1014D0001344FA8812491846FFF712FEFB880133BD
:1014E000FB800D4B9B88FA889A42EDD3094B5B78C1
:1014F000023BDAB20B4B1A700023019302230093D4
:10150000094B0A4A02210020FFF754FE00BF0837AA
:10151000BD4680BD180300209C0300201A03002054
:101520001C030020990300209C03002004000020DD
:1015300080B500AFFFF774FF0346012B02D1FFF720
:10154000AFFF00E000BF80BDB0B588B002AF03467A
:10155000B96087ED010AFB731346BB73BB680022B9
:101560001C4615464FF000004FF0000121000020FE
:101570003DA3D3E90023FEF77BFE02460B4613464C
:101580007B61334BA5221A70FB7BC3F11203DAB2E5
:101590002F4B5A702F4C786900F0B3F80346236044
:1015A000BB7B1B01DBB20133DAB2294B9A71D7ED59
:1015B000017AFDEEE77A17EE903A1BB207EE903A09
:1015C000F8EEE77A97ED017AB4EE677AF1EE10FA69
:1015D0000ED1D7ED017AFDEEE77A17EE903A1BB205
:1015E0005B0007EE903AF8EEE77AC7ED017A0EE07D
:1015F000D7ED017AFDEEE77A17EE903A1BB25B0069
:10160000013307EE903AF8EEE77AC7ED017AD7EDAD
:10161000017AFCEEE77A17EE903A9BB20E4C184630
:1016200000F088F8034623800C4B09221A7000232F
:101630000193002300930A4B0A4A01210120FFF77E
:10164000B9FD00BF1837BD46B0BD00BFAFF3008085
:10165000180300201A0300201F0300209903002014
:101660009C0300209C03002080F0FA020000000090
:1016700080B485B000AF78600023FB600023BB60BE
:101680000EE0FB685B00FB607B6803F00103FA6817
:101690001343FB607B685B087B60BB680133BB6006
:1016A000BB681F2BEDDDFB6818461437BD465DF89F
:1016B000047B704780B485B000AF0346FB800023F5
:1016C000FB810023BB6012E0FB895B00FB81B7F963
:1016D000063003F001031AB2B7F90E3013431BB200
:1016E000FB81FB885B08FB80BB680133BB60BB6888
:1016F0000F2BE9DDFB8918461437BD465DF8047BE6
:10170000704780B483B000AF78607B681A067B684E
:101710001B0203F47F031A437B681B0A03F47F4315
:101720001A437B681B0E134318460C37BD465DF801
:10173000047B704780B483B000AF0346FB80FB8816
:101740001B021AB2FB881B0A9BB21BB213431BB2CB
:101750009BB218460C37BD465DF8047B704700000D
:1017600080B586B000AF78600B467B804FF0FF33CA
:101770007B611A48FFF77CFFB86000233B6123E0E0
:101780003B697A6813441B781A467B6953407B6136
:101790000023FB6012E07B6903F00103002B07D0FC
:1017A0007B695B087B617A69BB6853407B6102E0BF
:1017B0007B695B087B61FB680133FB60FB68072B7F
:1017C000E9DD3B6901333B617B883A699A42D7DBAB
:1017D0007B69DB4318461837BD4680BDB71DC10481
:1017E00080B586B000AF78600B467B804FF6FF7304
:1017F000FB8248F20500FFF75DFF03467B81002373
:101800003B6123E03B697A6813441B781A46FB8AE4
:101810005340FB820023FB6012E0FB8A03F00103CC
:10182000002B07D0FB8A5B08FB82FA8A7B89534036
:10183000FB8202E0FB8A5B08FB82FB680133FB60F2
:10184000FB68072BE9DD3B6901333B617B883A6923
:101850009A42D7DBFB8A18461837BD4680BD80B454
:1018600085B000AF78600B467B800023FB600023CF
:10187000BB600AE0BB687A6813441B781A46FB68B1
:101880001344FB60BB680133BB607B88BA689A4233
:10189000F0DBFB68DBB218461437BD465DF8047B0D
:1018A0007047000080B500AF0E4B1B680D4A43F433
:1018B000007313600B4B1B680A4A43F48063136088
:1018C000084B1B68074A43F480731360032000F041
:1018D0004FF90F2000F008F8FFF7FCF80023184636
:1018E00080BD00BF003C024080B582B000AF786090
:1018F000124B1A68124B1B7819464FF47A73B3FBDC
:10190000F1F3B2FBF3F3184600F067F90346002B3E
:1019100001D001230EE07B680F2B0AD800227968E2
:101920004FF0FF3000F02FF9064A7B681360002368
:1019300000E0012318460837BD4680BD00000020A6
:101940000C0000200800002080B400AF064B1B787C
:101950001A46064B1B681344044A136000BFBD4679
:101960005DF8047B704700BF0C000020A40300203A
:1019700080B400AF034B1B681846BD465DF8047B7E
:10198000704700BFA403002080B584B000AF78602A
:10199000FFF7EEFFB8607B68FB60FB68B3F1FF3FC9
:1019A00005D00A4B1B781A46FB681344FB6000BF46
:1019B000FFF7DEFF0246BB68D31AFA689A42F7D8EF
:1019C00000BF00BF1037BD4680BD00BF0C00002027
:1019D00080B485B000AF78607B6803F00703FB60DC
:1019E0000C4BDB68BB60BA684FF6FF031340BB606B
:1019F000FB681A02BB68134343F0BF6343F4003330
:101A0000BB60044ABB68D36000BF1437BD465DF8B5
:101A1000047B704700ED00E080B400AF044BDB684E
:101A20001B0A03F007031846BD465DF8047B7047A8
:101A300000ED00E080B483B000AF0346FB7197F97E
:101A40000730002B0BDBFB7903F01F02074997F9E6
:101A500007305B09012000FA02F241F8232000BFA1
:101A60000C37BD465DF8047B704700BF00E100E025
:101A700080B483B000AF03463960FB7197F907303B
:101A8000002B0ADB3B68DAB20C4997F907301201E8
:101A9000D2B20B4483F800230AE03B68DAB208496B
:101AA000FB7903F00F03043B1201D2B20B441A7608
:101AB00000BF0C37BD465DF8047B704700E100E0D5
:101AC00000ED00E080B489B000AFF860B9607A60E2
:101AD000FB6803F00703FB61FB69C3F10703042BF9
:101AE00028BF0423BB61FB690433062B02D9FB69C1
:101AF000033B00E000237B614FF0FF32BB6902FA39
:101B000003F3DA43BB681A407B699A404FF0FF3118
:101B10007B6901FA03F3D9437B680B4013431846F2
:101B20002437BD465DF8047B7047000080B582B065
:101B300000AF78607B68013BB3F1807F01D3012364
:101B40000FE00A4A7B68013B53600F214FF0FF30E2
:101B5000FFF78EFF054B00229A60044B07221A60A4
:101B6000002318460837BD4680BD00BF10E000E0E6
:101B700080B582B000AF78607868FFF729FF00BFBA
:101B80000837BD4680BD80B586B000AF0346B9605A
:101B90007A60FB7300237B61FFF73EFF78617A6810
:101BA000B9687869FFF78EFF024697F90F30114642
:101BB0001846FFF75DFF00BF1837BD4680BD80B5F2
:101BC00082B000AF0346FB7197F907301846FFF764
:101BD00031FF00BF0837BD4680BD80B582B000AF81
:101BE00078607868FFF7A2FF034618460837BD46BD
:101BF00080BD000080B586B000AF786000237B61B7
:101C0000FFF7B6FE38617B68002B01D1012399E014
:101C10007B68022283F835207B68002283F8342019
:101C20007B681B681A687B681B6822F001021A60D7
:101C30000FE0FFF79DFE02463B69D31A052B08D93A
:101C40007B6820225A657B68032283F835200323B2
:101C500078E07B681B681B6803F00103002BE8D168
:101C60007B681B681B687B617A69384B13407B611A
:101C70007B685A687B689B681A437B68DB681A43F9
:101C80007B681B691A437B685B691A437B689B69A5
:101C90001A437B68DB691A437B681B6A13437A69C2
:101CA00013437B617B685B6A042B07D17B68DA6A2C
:101CB0007B681B6B13437A6913437B617B681B68EA
:101CC0007A691A607B681B685B697B617B6923F0BA
:101CD00007037B617B685B6A7A6913437B617B687E
:101CE0005B6A042B17D17B689B6A7A6913437B611B
:101CF0007B68DB6A002B0ED0786800F001FB03469E
:101D0000002B08D07B6840225A657B68012283F84B
:101D10003520012316E07B681B687A695A61786870
:101D200000F0B8FA0346FB607B68DB6D3F229A4007
:101D3000FB689A607B6800225A657B68012283F801
:101D40003520002318461837BD4680BD3F8010F06F
:101D500080B586B000AFF860B9607A603B60002360
:101D6000FB75FB689B6D3B61FB6893F83430012B7E
:101D700001D1022340E0FB68012283F83420FB6894
:101D800093F83530DBB2012B2FD1FB68022283F8A8
:101D90003520FB6800225A653B687A68B968F868A4
:101DA00000F04AFAFB68DB6D3F229A403B699A607B
:101DB000FB681B681A68FB681B6842F016021A6011
:101DC000FB681B6C002B07D0FB681B681A68FB685C
:101DD0001B6842F008021A60FB681B681A68FB68FF
:101DE0001B6842F001021A6005E0FB68002283F8DC
:101DF00034200223FB75FB7D18461837BD4680BD95
:101E000080B584B000AF78607B689B6DFB60FFF7A6
:101E1000AFFDB8607B6893F83530DBB2022B08D099
:101E20007B6880225A657B68002283F83420012376
:101E300052E07B681B681A687B681B6822F01602F8
:101E40001A607B681B685A697B681B6822F08002F5
:101E50005A617B681B6C002B03D17B689B6C002B49
:101E600007D07B681B681A687B681B6822F0080231
:101E70001A607B681B681A687B681B6822F0010285
:101E80001A6013E0FFF774FD0246BB68D31A052BF6
:101E90000CD97B6820225A657B68032283F83520A1
:101EA0007B68002283F83420032315E07B681B68DD
:101EB0001B6803F00103002BE4D17B68DB6D3F223C
:101EC0009A40FB689A607B68012283F835207B6822
:101ED000002283F83420002318461037BD4680BD09
:101EE00080B483B000AF78607B6893F83530DBB2A4
:101EF000022B04D07B6880225A6501230CE07B68AA
:101F0000052283F835207B681B681A687B681B688C
:101F100022F001021A60002318460C37BD465DF816
:101F2000047B704780B586B000AF78600023BB604B
:101F30008E4B1B688E4AA2FB03239B0A7B617B6846
:101F40009B6D3B613B691B68FB607B68DB6D082216
:101F50009A40FB681340002B1AD07B681B681B68F3
:101F600003F00403002B13D07B681B681A687B689E
:101F70001B6822F004021A607B68DB6D08229A401D
:101F80003B699A607B685B6D43F001027B685A6530
:101F90007B68DB6D01229A40FB681340002B12D056
:101FA0007B681B685B6903F08003002B0BD07B68A8
:101FB000DB6D01229A403B699A607B685B6D43F060
:101FC00002027B685A657B68DB6D04229A40FB68DD
:101FD0001340002B12D07B681B681B6803F00203C0
:101FE000002B0BD07B68DB6D04229A403B699A6022
:101FF0007B685B6D43F004027B685A657B68DB6D30
:1020000010229A40FB681340002B43D07B681B686A
:102010001B6803F00803002B3CD07B68DB6D1022AB
:102020009A403B699A607B681B681B6803F48023B5
:10203000002B18D07B681B681B6803F40023002B5F
:1020400008D17B681B6C002B24D07B681B6C7868E4
:1020500098471FE07B689B6C002B1BD07B689B6CB8
:102060007868984716E07B681B681B6803F48073E8
:10207000002B07D17B681B681A687B681B6822F0FD
:1020800008021A607B681B6C002B03D07B681B6CFA
:10209000786898477B68DB6D20229A40FB68134084
:1020A000002B00F08F807B681B681B6803F0100317
:1020B000002B00F087807B68DB6D20229A403B6913
:1020C0009A607B6893F83530DBB2052B36D17B689C
:1020D0001B681A687B681B6822F016021A607B680E
:1020E0001B685A697B681B6822F080025A617B6812
:1020F0001B6C002B03D17B689B6C002B07D07B688B
:102100001B681A687B681B6822F008021A607B68EB
:10211000DB6D3F229A403B699A607B68012283F81D
:1021200035207B68002283F834207B681B6D002BF0
:102130007ED07B681B6D7868984779E07B681B6868
:102140001B6803F48023002B1DD07B681B681B6871
:1021500003F40023002B0DD17B685B6C002B31D086
:102160007B685B6C786898472CE000BF000000201B
:10217000B5814E1B7B68DB6B002B23D07B68DB6B50
:10218000786898471EE07B681B681B6803F48073BF
:10219000002B0FD17B681B681A687B681B6822F0D4
:1021A00010021A607B68012283F835207B680022C8
:1021B00083F834207B68DB6B002B03D07B68DB6B00
:1021C000786898477B685B6D002B32D07B685B6DCD
:1021D00003F00103002B22D07B68052283F8352011
:1021E0007B681B681A687B681B6822F001021A6012
:1021F000BB680133BB607A699A4207D37B681B686E
:102200001B6803F00103002BF2D100E000BF7B68E4
:10221000012283F835207B68002283F834207B6814
:10222000DB6C002B05D07B68DB6C7868984700E09E
:1022300000BF1837BD4680BD80B485B000AFF860E0
:10224000B9607A603B60FB681B681A68FB681B68B2
:1022500022F480221A60FB681B683A685A60FB68A7
:102260009B68402B08D1FB681B687A689A60FB6802
:102270001B68BA68DA6007E0FB681B68BA689A6096
:10228000FB681B687A68DA6000BF1437BD465DF8EA
:10229000047B704780B485B000AF78607B681B68B2
:1022A000DBB2103B144AA2FB03231B09FB60134A59
:1022B000FB6813441B781A467B68DA65FB68032BBE
:1022C00009D97B681B6823F47F7323F003031A1D6D
:1022D0007B689A6507E07B681B6823F47F7323F0B3
:1022E00003037A6893657B689B6D18461437BD4677
:1022F0005DF8047B704700BFABAAAAAAFC6900087E
:1023000080B485B000AF78600023FB737B689B6A64
:10231000BB607B689B69002B1FD1BB68032B56D821
:1023200001A252F823F000BF392300084B23000814
:1023300039230008CF2300087B68DB6A03F0807331
:10234000002B46D00123FB7343E07B68DB6AB3F1CB
:10235000C07F40D10123FB733DE07B689B69B3F5EF
:10236000005F21D1BB68032B37D801A252F823F0BC
:10237000812300088723000881230008992300088F
:102380000123FB7330E07B68DB6A03F08073002B72
:1023900025D00123FB7322E07B68DB6AB3F1C07FA9
:1023A0001FD10123FB731CE0BB68022B03D9BB6860
:1023B000032B03D018E00123FB7315E07B68DB6A75
:1023C00003F08073002B0ED00123FB730BE000BFE2
:1023D0000AE000BF08E000BF06E000BF04E000BF65
:1023E00002E000BF00E000BFFB7B18461437BD468B
:1023F0005DF8047B704700BF80B489B000AF78609F
:10240000396000237B6100233B610023BB61002313
:10241000FB616BE10122FB6902FA03F37B613B681C
:102420001B687A6913403B613A697B699A4240F0C4
:102430005A813B685B6803F00303012B05D03B68BE
:102440005B6803F00303022B30D17B689B68BB61A0
:10245000FB695B00032202FA03F3DB43BA69134012
:10246000BB613B68DA68FB695B0002FA03F3BA6997
:102470001343BB617B68BA699A607B685B68BB6128
:102480000122FB6902FA03F3DB43BA691340BB6123
:102490003B685B681B0903F00102FB6902FA03F366
:1024A000BA691343BB617B68BA695A603B685B6871
:1024B00003F00303032B17D07B68DB68BB61FB6968
:1024C0005B00032202FA03F3DB43BA691340BB61EA
:1024D0003B689A68FB695B0002FA03F3BA6913432D
:1024E000BB617B68BA69DA603B685B6803F0030331
:1024F000022B23D1FB69DA087B68083253F82230BB
:10250000BB61FB6903F007039B000F2202FA03F390
:10251000DB43BA691340BB613B681A69FB6903F08E
:1025200007039B0002FA03F3BA691343BB61FB691B
:10253000DA087B680832B96943F822107B681B68A7
:10254000BB61FB695B00032202FA03F3DB43BA6958
:102550001340BB613B685B6803F00302FB695B00EF
:1025600002FA03F3BA691343BB617B68BA691A6064
:102570003B685B6803F44033002B00F0B480002319
:10258000FB60604B5B6C5F4A43F4804353645D4B7C
:102590005B6C03F48043FB60FB685B4AFB699B0850
:1025A000023352F82330BB61FB6903F003039B0045
:1025B0000F2202FA03F3DB43BA691340BB617B6865
:1025C000524A93422BD07B68514A934225D07B6874
:1025D000504A93421FD07B684F4A934219D07B6880
:1025E0004E4A934213D07B684D4A93420DD07B688C
:1025F0004C4A934207D07B684B4A934201D1072350
:102600000EE008230CE006230AE0052308E004237B
:1026100006E0032304E0022302E0012300E000239C
:10262000FA6902F0030292009340BA691343BB6156
:102630003549FB699B080233BA6941F823203B4BBB
:102640009B68BB613B69DB43BA691340BB613B6874
:102650005B6803F48013002B03D0BA693B69134312
:10266000BB61324ABB699360304BDB68BB613B693D
:10267000DB43BA691340BB613B685B6803F400133A
:10268000002B03D0BA693B691343BB61274ABB697E
:10269000D360264B5B68BB613B69DB43BA6913407F
:1026A000BB613B685B6803F40033002B03D0BA695D
:1026B0003B691343BB611D4ABB6953601B4B1B68DD
:1026C000BB613B69DB43BA691340BB613B685B6834
:1026D00003F48033002B03D0BA693B691343BB6119
:1026E000124ABB691360FB690133FB61FB690F2B65
:1026F0007FF690AE00BF00BF2437BD465DF8047B77
:10270000704700BF0038024000380140000002401E
:102710000004024000080240000C02400010024089
:102720000014024000180240001C0240003C01401E
:1027300080B483B000AF78600B467B8013467B701B
:102740007B78002B03D07A887B689A6103E07B88D2
:102750001A047B689A6100BF0C37BD465DF8047BA4
:10276000704780B485B000AF78600B467B807B6893
:102770005B69FB607A88FB6813401A04FB68D943E5
:102780007B880B401A437B689A6100BF1437BD46B3
:102790005DF8047B7047000080B584B000AF7860BE
:1027A0007B68002B01D101232BE17B6893F83D303E
:1027B000DBB2002B06D17B68002283F83C207868CE
:1027C000FDF7CCFF7B68242283F83D207B681B68E3
:1027D0001A687B681B6822F001021A607B681B681C
:1027E0001A687B681B6842F400421A607B681B68A9
:1027F0001A687B681B6822F400421A6001F020FC12
:10280000F8607B685B68814A934207D8FB68804A1E
:10281000934294BF01230023DBB206E0FB687D4AAC
:10282000934294BF01230023DBB2002B01D001238C
:10283000E7E0FB68784AA2FB03239B0CBB607B6844
:102840001B685B6823F03F017B681B68BA680A431A
:102850005A607B681B681B6A23F03F017B685B68DA
:102860006A4A934202D8BB68013309E0BB684FF45F
:10287000967202FB03F3694AA2FB03239B0901330F
:102880007A6812680B4313627B681B68DB6923F468
:102890004F4222F0FF027B685B685C498B4219D88B
:1028A000FB68591E7B685B685B00B1FBF3F3591C46
:1028B00040F6FC730B40002B0AD0FB68591E7B6866
:1028C0005B685B00B1FBF3F30133C3F30B0351E02F
:1028D00004234FE07B689B68002B11D1FB68581ED6
:1028E0007B6859680B465B000B44B0FBF3F3013384
:1028F000C3F30B03002B0CBF01230023DBB212E058
:10290000FB68581E7B6859680B469B000B44990076
:102910000B44B0FBF3F30133C3F30B03002B0CBFE9
:1029200001230023DBB2002B01D0012322E07B68CE
:102930009B68002B0ED1FB68581E7B6859680B46BC
:102940005B000B44B0FBF3F30133C3F30B0343F41D
:1029500000430FE0FB68581E7B6859680B469B00DC
:102960000B4499000B44B0FBF3F30133C3F30B03A7
:1029700043F44043796809681343CB617B681B6863
:102980001B6823F0C0017B68DA697B681B6A1A4305
:102990007B681B680A431A607B681B689B6823F48A
:1029A000034323F0FF037A6811697A68D268114300
:1029B0007A6812680B4393607B681B68DB6823F0BE
:1029C000FF017B685A697B689B691A437B681B68B7
:1029D0000A43DA607B681B681A687B681B6842F0F0
:1029E00001021A607B6800221A647B68202283F847
:1029F0003D207B6800221A637B68002283F83E201A
:102A0000002318461037BD4680BD00BFA0860100D8
:102A10007F841E00FF083D0083DE1B43D34D621000
:102A200080B588B002AFF860084611461A460346E2
:102A30007B810B463B811346FB80FEF799FF786153
:102A4000FB6893F83D30DBB2202B40F0D9807B69E6
:102A50000093192301226D49F86800F08BFC0346AE
:102A6000002B01D00223CCE0FB6893F83C30012B13
:102A700001D10223C5E0FB68012283F83C20FB68FA
:102A80001B681B6803F00103012B07D0FB681B6860
:102A90001A68FB681B6842F001021A60FB681B6839
:102AA0001A68FB681B6822F400621A60FB68212226
:102AB00083F83D20FB68402283F83E20FB6800221B
:102AC0001A64FB683A6A5A62FB68BA8C5A85FB68DA
:102AD0005B8D9AB2FB681A85FB684D4ADA62F8880A
:102AE0003A8979897B690193BB6A00930346F86848
:102AF00000F0C2FA0346002B52D0012381E07A692C
:102B0000B96AF86800F050FD0346002B0DD0FB6851
:102B10001B6C042B07D1FB681B681A68FB681B68D9
:102B200042F400721A6001236BE0FB685B6A1A785A
:102B3000FB681B681A61FB685B6A5A1CFB685A6277
:102B4000FB681B8D013B9AB2FB681A85FB685B8DA5
:102B50009BB2013B9AB2FB685A85FB681B685B69B4
:102B600003F00403042B1BD1FB681B8D002B17D033
:102B7000FB685B6A1A78FB681B681A61FB685B6A12
:102B80005A1CFB685A62FB681B8D013B9AB2FB68BA
:102B90001A85FB685B8D9BB2013B9AB2FB685A8534
:102BA000FB681B8D002BAAD17A69B96AF86800F01E
:102BB00043FD0346002B0DD0FB681B6C042B07D193
:102BC000FB681B681A68FB681B6842F400721A6095
:102BD000012316E0FB681B681A68FB681B6842F457
:102BE00000721A60FB68202283F83D20FB680022F7
:102BF00083F83E20FB68002283F83C20002300E09D
:102C0000022318461837BD4680BD00BF02001000E1
:102C10000000FFFF80B58CB002AFF8600846114697
:102C20001A4603467B810B463B811346FB80FEF729
:102C30009FFE7862FB6893F83D30DBB2202B40F0BA
:102C400014827B6A0093192301227B49F86800F003
:102C500091FB0346002B01D0022307E2FB6893F8A7
:102C60003C30012B01D1022300E2FB68012283F8F2
:102C70003C20FB681B681B6803F00103012B07D095
:102C8000FB681B681A68FB681B6842F001021A6047
:102C9000FB681B681A68FB681B6822F400621A60F4
:102CA000FB68222283F83D20FB68402283F83E2007
:102CB000FB6800221A64FB683A6B5A62FB68BA8EA2
:102CC0005A85FB685B8D9AB2FB681A85FB685B4A84
:102CD000DA62F8883A8979897B6A0193BB6B009341
:102CE0000346F86800F05EFA0346002B01D001238A
:102CF000BCE1FB681B8D002B13D100233B62FB68FA
:102D00001B685B693B62FB681B689B693B623B6AB3
:102D1000FB681B681A68FB681B6842F400721A6043
:102D200090E1FB681B8D012B1BD1FB681B681A68A7
:102D3000FB681B6822F480621A600023FB61FB6859
:102D40001B685B69FB61FB681B689B69FB61FB6936
:102D5000FB681B681A68FB681B6842F400721A6003
:102D600070E1FB681B8D022B1BD1FB681B681A6886
:102D7000FB681B6822F480621A60FB681B681A6893
:102D8000FB681B6842F400621A600023BB61FB68A9
:102D90001B685B69BB61FB681B689B69BB61BB69A6
:102DA00050E100237B61FB681B685B697B61FB680A
:102DB0001B689B697B617B6944E1FB681B8D032B6E
:102DC00000F2F180FB681B8D012B23D17A6AB96B6D
:102DD000F86800F079FC0346002B01D0012345E19F
:102DE000FB681B681A69FB685B6AD2B21A70FB68E1
:102DF0005B6A5A1CFB685A62FB681B8D013B9AB2E6
:102E0000FB681A85FB685B8D9BB2013B9AB2FB683D
:102E10005A8517E1FB681B8D022B4ED17B6A00930C
:102E2000BB6B00220649F86800F0A4FA0346002BA9
:102E300008D001231AE100BF020010000000FFFFCC
:102E400004000100FB681B681A68FB681B6842F4F9
:102E500000721A60FB681B681A69FB685B6AD2B271
:102E60001A70FB685B6A5A1CFB685A62FB681B8D10
:102E7000013B9AB2FB681A85FB685B8D9BB2013BF4
:102E80009AB2FB685A85FB681B681A69FB685B6A23
:102E9000D2B21A70FB685B6A5A1CFB685A62FB6804
:102EA0001B8D013B9AB2FB681A85FB685B8D9BB258
:102EB000013B9AB2FB685A85C4E07B6A0093BB6B06
:102EC00000226C49F86800F055FA0346002B01D047
:102ED0000123CBE0FB681B681A68FB681B6822F4BF
:102EE00080621A60FB681B681A69FB685B6AD2B271
:102EF0001A70FB685B6A5A1CFB685A62FB681B8D80
:102F0000013B9AB2FB681A85FB685B8D9BB2013B63
:102F10009AB2FB685A857B6A0093BB6B00225549C5
:102F2000F86800F027FA0346002B01D001239DE04A
:102F3000FB681B681A68FB681B6842F400721A6021
:102F4000FB681B681A69FB685B6AD2B21A70FB687F
:102F50005B6A5A1CFB685A62FB681B8D013B9AB284
:102F6000FB681A85FB685B8D9BB2013B9AB2FB68DC
:102F70005A85FB681B681A69FB685B6AD2B21A70D3
:102F8000FB685B6A5A1CFB685A62FB681B8D013B3D
:102F90009AB2FB681A85FB685B8D9BB2013B9AB2C3
:102FA000FB685A854EE07A6AB96BF86800F08CFBD2
:102FB0000346002B01D0012358E0FB681B681A6907
:102FC000FB685B6AD2B21A70FB685B6A5A1CFB68CA
:102FD0005A62FB681B8D013B9AB2FB681A85FB683D
:102FE0005B8D9BB2013B9AB2FB685A85FB681B68FC
:102FF0005B6903F00403042B24D1FB681B8D032BB6
:1030000007D1FB681B681A68FB681B6822F48062A2
:103010001A60FB681B681A69FB685B6AD2B21A7097
:10302000FB685B6A5A1CFB685A62FB681B8D013B9C
:103030009AB2FB681A85FB685B8D9BB2013B9AB222
:10304000FB685A85FB681B8D002B7FF4B6AEFB68CE
:10305000202283F83D20FB68002283F83E20FB6895
:10306000002283F83C20002300E002231846283782
:10307000BD4680BD0400010080B588B002AFF86095
:10308000084611461A4603467B810B463B81134690
:10309000FB80FB681B681A68FB681B6842F480723F
:1030A0001A607B6A00933B6A00224FF00111F868B6
:1030B00000F060F90346002B0DD0FB681B681B680D
:1030C00003F48073B3F5807F03D1FB684FF4007283
:1030D0001A6403235FE07B89DBB21A46FB681B6836
:1030E00002F0FE021A617B6A3A6A2D49F86800F024
:1030F000BBF90346002B01D001234CE000237B6188
:10310000FB681B685B697B61FB681B689B697B6173
:103110007B697A6A396AF86800F046FA0346002B40
:103120000DD0FB681B6C042B07D1FB681B681A6869
:10313000FB681B6842F400721A6001232BE0FB88D5
:10314000012B05D13B89DAB2FB681B681A6121E0CB
:103150003B891B0A9BB2DAB2FB681B681A617A6A68
:10316000396AF86800F020FA0346002B0DD0FB689E
:103170001B6C042B07D1FB681B681A68FB681B6873
:1031800042F400721A60012305E03B89DAB2FB6861
:103190001B681A61002318461837BD4680BD00BF62
:1031A0000200010080B588B002AFF8600846114601
:1031B0001A4603467B810B463B811346FB80FB6826
:1031C0001B681A68FB681B6842F480621A60FB681F
:1031D0001B681A68FB681B6842F480721A607B6A7D
:1031E00000933B6A00224FF00111F86800F0C2F82A
:1031F0000346002B0DD0FB681B681B6803F480732B
:10320000B3F5807F03D1FB684FF400721A64032387
:10321000AAE07B89DBB21A46FB681B6802F0FE025B
:103220001A617B6A3A6A5249F86800F01DF9034650
:10323000002B01D0012397E000237B61FB681B6812
:103240005B697B61FB681B689B697B617B697A6A50
:10325000396AF86800F0A8F90346002B0DD0FB6826
:103260001B6C042B07D1FB681B681A68FB681B6882
:1032700042F400721A60012376E0FB88012B05D12D
:103280003B89DAB2FB681B681A6121E03B891B0AA3
:103290009BB2DAB2FB681B681A617A6A396AF8680D
:1032A00000F082F90346002B0DD0FB681B6C042B49
:1032B00007D1FB681B681A68FB681B6842F4007240
:1032C0001A60012350E03B89DAB2FB681B681A617F
:1032D0007A6A396AF86800F067F90346002B0DD066
:1032E000FB681B6C042B07D1FB681B681A68FB6822
:1032F0001B6842F400721A60012335E0FB681B680A
:103300001A68FB681B6842F480721A607B6A00933B
:103310003B6A00224FF00111F86800F02BF80346D9
:10332000002B0DD0FB681B681B6803F48073B3F59A
:10333000807F03D1FB684FF400721A64032313E00B
:103340007B89DBB243F00103DAB2FB681B681A61C8
:103350007B6A3A6A0649F86800F086F80346002B53
:1033600001D0012300E0002318461837BD4680BD78
:103370000200010080B584B000AFF860B9603B6026
:103380001346FB7148E03B68B3F1FF3F44D0FEF7C2
:10339000EFFA0246BB69D31A3A689A4202D33B68F5
:1033A000002B39D1BB681B0CDBB2012B0DD1FB68A4
:1033B0001B685B69DA43BB6813409BB2002B0CBFF0
:1033C00001230023DBB21A460CE0FB681B689B69F3
:1033D000DA43BB6813409BB2002B0CBF01230023D0
:1033E000DBB21A46FB799A4216D1FB6800221A63B7
:1033F000FB68202283F83D20FB68002283F83E20F2
:10340000FB681B6C43F02002FB681A64FB68002217
:1034100083F83C20012323E0BB681B0CDBB2012BAB
:103420000DD1FB681B685B69DA43BB6813409BB234
:10343000002B0CBF01230023DBB21A460CE0FB6813
:103440001B689B69DA43BB6813409BB2002B0CBF1F
:1034500001230023DBB21A46FB799A4293D0002362
:1034600018461037BD4680BD80B584B000AFF86007
:10347000B9607A603B6071E0FB681B685B6903F4CC
:103480008063B3F5806F23D1FB681B681A68FB6803
:103490001B6842F400721A60FB681B686FF480625C
:1034A0005A61FB6800221A63FB68202283F83D20E2
:1034B000FB68002283F83E20FB681B6C43F004028B
:1034C000FB681A64FB68002283F83C20012367E054
:1034D0007B68B3F1FF3F41D0FEF74AFA02463B68F2
:1034E000D31A7A689A4202D37B68002B36D1BB6824
:1034F0001B0CDBB2012B0CD1FB681B685B69DA4348
:10350000BB6813409BB2002B14BF01230023DBB226
:103510000BE0FB681B689B69DA43BB6813409BB2F6
:10352000002B14BF01230023DBB2002B16D0FB6855
:1035300000221A63FB68202283F83D20FB680022EA
:1035400083F83E20FB681B6C43F02002FB681A6482
:10355000FB68002283F83C20012321E0BB681B0CA0
:10356000DBB2012B0CD1FB681B685B69DA43BB68DB
:1035700013409BB2002B14BF01230023DBB20BE0EE
:10358000FB681B689B69DA43BB6813409BB2002B46
:1035900014BF01230023DBB2002B7FF46DAF0023A7
:1035A00018461037BD4680BD80B584B000AFF860C6
:1035B000B9607A6034E0F86800F0E3F80346002B65
:1035C00001D0012334E0BB68B3F1FF3F28D0FEF700
:1035D000CFF902467B68D31ABA689A4202D3BB6815
:1035E000002B1DD1FB681B685B6903F08003802BF7
:1035F00016D0FB6800221A63FB68202283F83D2066
:10360000FB68002283F83E20FB681B6C43F020021D
:10361000FB681A64FB68002283F83C20012307E062
:10362000FB681B685B6903F08003802BC3D1002318
:1036300018461037BD4680BD80B584B000AFF86035
:10364000B9607A6034E0F86800F09BF80346002B1C
:1036500001D0012334E0BB68B3F1FF3F28D0FEF76F
:1036600087F902467B68D31ABA689A4202D3BB68CC
:10367000002B1DD1FB681B685B6903F00403042B5E
:1036800016D0FB6800221A63FB68202283F83D20D5
:10369000FB68002283F83E20FB681B6C43F020028D
:1036A000FB681A64FB68002283F83C20012307E0D2
:1036B000FB681B685B6903F00403042BC3D1002380
:1036C00018461037BD4680BD80B584B000AFF860A5
:1036D000B9607A6049E0FB681B685B6903F010031E
:1036E000102B19D1FB681B686FF010025A61FB6840
:1036F00000221A63FB68202283F83D20FB68002229
:1037000083F83E20FB681A6CFB681A64FB68002291
:1037100083F83C20012330E0FEF72AF902467B685B
:10372000D31ABA689A4202D3BB68002B1DD1FB683A
:103730001B685B6903F04003402B16D0FB68002236
:103740001A63FB68202283F83D20FB68002283F87F
:103750003E20FB681B6C43F02002FB681A64FB6888
:10376000002283F83C20012307E0FB681B685B69AB
:1037700003F04003402BAED1002318461037BD465E
:1037800080BD80B483B000AF78607B681B685B69E4
:1037900003F48063B3F5806F1BD17B681B686FF403
:1037A00080625A617B6800221A637B68202283F85A
:1037B0003D207B68002283F83E207B681B6C43F031
:1037C00004027B681A647B68002283F83C20012392
:1037D00000E0002318460C37BD465DF8047B7047B7
:1037E00080B586B000AF78607B68002B01D10123E3
:1037F00067E27B681B6803F00103002B75D0884BE0
:103800009B6803F00C03042B0CD0854B9B6803F0E2
:103810000C03082B12D1824B5B6803F48003B3F5D1
:10382000800F0BD17E4B1B6803F40033002B5BD061
:103830007B685B68002B57D1012342E27B685B68A1
:10384000B3F5803F06D1764B1B68754A43F480334D
:1038500013601DE07B685B68B3F5A02F0CD1704B43
:103860001B686F4A43F4802313606D4B1B686C4ADE
:1038700043F4803313600BE0694B1B68684A23F400
:1038800080331360664B1B68654A23F48023136002
:103890007B685B68002B13D0FEF76AF8386108E09C
:1038A000FEF766F802463B69D31A642B01D903235D
:1038B00007E25B4B1B6803F40033002BF0D014E0ED
:1038C000FEF756F8386108E0FEF752F802463B6909
:1038D000D31A642B01D90323F3E1514B1B6803F482
:1038E0000033002BF0D100E000BF7B681B6803F0C1
:1038F0000203002B63D04A4B9B6803F00C03002BA0
:103900000BD0474B9B6803F00C03082B1CD1444B96
:103910005B6803F48003002B16D1414B1B6803F056
:103920000203002B05D07B68DB68012B01D001234B
:10393000C7E13B4B1B6823F0F8027B681B69DB0087
:10394000374913430B603AE07B68DB68002B20D0DB
:10395000344B01221A60FEF70BF8386108E0FEF7DD
:1039600007F802463B69D31A022B01D90323A8E1C9
:103970002B4B1B6803F00203002BF0D0284B1B6875
:1039800023F0F8027B681B69DB00254913430B60B9
:1039900015E0244B00221A60FDF7EAFF386108E0C9
:1039A000FDF7E6FF02463B69D31A022B01D9032338
:1039B00087E11B4B1B6803F00203002BF0D17B68EF
:1039C0001B6803F00803002B36D07B685B69002B73
:1039D00016D0154B01221A60FDF7CAFF386108E0C6
:1039E000FDF7C6FF02463B69D31A022B01D9032318
:1039F00067E10B4B5B6F03F00203002BF0D01BE081
:103A0000094B00221A60FDF7B3FF38610EE0FDF7A5
:103A1000AFFF02463B69D31A022B07D9032350E1BB
:103A20000038024000004742800E4742884B5B6FDF
:103A300003F00203002BEAD17B681B6803F0040348
:103A4000002B00F097800023FB75814B1B6C03F06B
:103A50008053002B0FD10023BB607D4B1B6C7C4A35
:103A600043F0805313647A4B1B6C03F08053BB60AC
:103A7000BB680123FB75774B1B6803F48073002B35
:103A800018D1744B1B68734A43F480731360FDF7BD
:103A90006FFF386108E0FDF76BFF02463B69D31A00
:103AA000022B01D903230CE16A4B1B6803F48073DA
:103AB000002BF0D07B689B68012B06D1644B1B6FF9
:103AC000634A43F0010313671CE07B689B68052B86
:103AD0000CD15F4B1B6F5E4A43F0040313675C4BD2
:103AE0001B6F5B4A43F0010313670BE0584B1B6FDE
:103AF000574A23F001031367554B1B6F544A23F0B9
:103B0000040313677B689B68002B15D0FDF730FF1B
:103B100038610AE0FDF72CFF02463B69D31A41F2F7
:103B20008832934201D90323CBE0494B1B6F03F04A
:103B30000203002BEED014E0FDF71AFF38610AE013
:103B4000FDF716FF02463B69D31A41F288329342D1
:103B500001D90323B5E03E4B1B6F03F00203002B9A
:103B6000EED1FB7D012B05D1394B1B6C384A23F07C
:103B7000805313647B689B69002B00F0A180344B59
:103B80009B6803F00C03082B5CD07B689B69022BBD
:103B900041D1314B00221A60FDF7EAFE386108E09E
:103BA000FDF7E6FE02463B69D31A022B01D9032337
:103BB00087E0274B1B6803F00073002BF0D17B6874
:103BC000DA697B681B6A1A437B685B6A9B011A434C
:103BD0007B689B6A5B08013B1B041A437B68DB6ABA
:103BE0001B061B4913434B601B4B01221A60FDF758
:103BF000BFFE386108E0FDF7BBFE02463B69D31A01
:103C0000022B01D903235CE0114B1B6803F0007306
:103C1000002BF0D054E0104B00221A60FDF7A8FEF4
:103C2000386108E0FDF7A4FE02463B69D31A022B77
:103C300001D9032345E0064B1B6803F00073002BFA
:103C4000F0D13DE07B689B69012B07D1012338E06F
:103C50000038024000700040600047421B4B5B6828
:103C6000FB607B689B69012B28D0FB6803F4800212
:103C70007B68DB699A4221D1FB6803F03F027B68D5
:103C80001B6A9A421AD1FA6847F6C07313407A68E1
:103C9000526A9201934211D1FB6803F440327B686F
:103CA0009B6A5B08013B1B049A4207D1FB6803F047
:103CB00070627B68DB6A1B069A4201D0012300E038
:103CC000002318461837BD4680BD00BF00380240AB
:103CD00080B584B000AF786039607B68002B01D17B
:103CE0000123CCE0684B1B6803F007033A689A4253
:103CF0000CD9654B3A68D2B21A70634B1B6803F05B
:103D000007033A689A4201D00123B8E07B681B6838
:103D100003F00203002B20D07B681B6803F0040330
:103D2000002B05D0594B9B68584A43F4E0539360ED
:103D30007B681B6803F00803002B05D0534B9B687E
:103D4000524A43F460439360504B9B6823F0F00267
:103D50007B689B684D4913438B607B681B6803F04D
:103D60000103002B44D07B685B68012B07D1474BD4
:103D70001B6803F40033002B19D101237FE07B681B
:103D80005B68022B03D07B685B68032B07D13F4B3A
:103D90001B6803F00073002B09D101236FE03B4B3C
:103DA0001B6803F00203002B01D1012367E0374BAE
:103DB0009B6823F003027B685B68344913438B6084
:103DC000FDF7D6FDF8600AE0FDF7D2FD0246FB687C
:103DD000D31A41F28832934201D903234FE02B4B8F
:103DE0009B6803F00C027B685B689B009A42EBD1F6
:103DF000254B1B6803F007033A689A420CD2224B0A
:103E00003A68D2B21A70204B1B6803F007033A6875
:103E10009A4201D0012332E07B681B6803F004035F
:103E2000002B08D0194B9B6823F4E0527B68DB68B9
:103E3000164913438B607B681B6803F00803002B53
:103E400009D0124B9B6823F460427B681B69DB003E
:103E50000E4913438B6000F021F802460B4B9B6820
:103E60001B0903F00F030A49CB5C22FA03F3094A4A
:103E70001360094B1B681846FDF736FD00231846F2
:103E80001037BD4680BD00BF003C024000380240F4
:103E9000E469000800000020080000202DE9B04F70
:103EA00090B000AF00237B630023FB6300233B63E0
:103EB0000023BB63594B9B6803F00C03082B0DD008
:103EC000082B00F2A180002B02D0042B03D09BE032
:103ED000534BBB639BE0534BBB6398E04F4B5B681A
:103EE00003F03F037B634D4B5B6803F48003002BBF
:103EF00028D04A4B5B689B0900223B627A623B6A8E
:103F0000C3F308000021474B03FB01F2002300FB31
:103F100003F31344434AA0FB0212FA620A46BA6250
:103F2000FA6A1344FB627B6B0022BB61FA61D7E93A
:103F30000623D7E90A01FCF79BF902460B46134614
:103F4000FB6353E0354B5B689B0900223B617A6160
:103F50003B69C3F3080A4FF0000B52465B464FF033
:103F600000004FF00001590141EAD26150010246C0
:103F70000B46B2EB0A0863EB0B094FF000024FF05F
:103F800000034FEA891343EA98634FEA8812B2EBC1
:103F9000080463EB09054FF000024FF00003EB004B
:103FA00043EA5473E20014461D4614EB0A033B60D7
:103FB00045EB0B037B604FF000024FF00003D7E9A5
:103FC000004529468B02214643EA915321468A0245
:103FD000104619467B6B0022BB60FA60D7E90223CA
:103FE000FCF746F902460B461346FB630B4B5B6836
:103FF0001B0C03F0030301335B003B63FA6B3B6B69
:10400000B2FBF3F3BB6302E0054BBB6300BFBB6BCA
:1040100018464037BD46BDE8B08F00BF00380240AB
:104020000024F40040787D0180B400AF034B1B688E
:104030001846BD465DF8047B704700BF00000020B5
:1040400080B500AFFFF7F0FF0246054B9B689B0A67
:1040500003F007030349CB5C22FA03F3184680BD43
:1040600000380240F469000880B500AFFFF7DCFFBC
:104070000246054B9B685B0B03F007030349CB5CCF
:1040800022FA03F3184680BD00380240F4690008A4
:1040900080B582B000AF78607B68002B01D101232E
:1040A0007BE07B685B6A002B08D17B685B68B3F5BB
:1040B000827F09D07B680022DA6105E07B680022FC
:1040C0001A617B6800225A617B6800229A627B68D1
:1040D00093F85130DBB2002B06D17B68002283F8C5
:1040E00050207868FCF7AEFC7B68022283F85120F0
:1040F0007B681B681A687B681B6822F040021A60A4
:104100007B685B6803F482727B689B6803F40443FA
:104110001A437B68DB6803F400631A437B681B69FE
:1041200003F002031A437B685B6903F001031A433F
:104130007B689B6903F400731A437B68DB6903F0B7
:1041400038031A437B681B6A03F0800342EA0301C9
:104150007B689B6A03F400527B681B680A431A6001
:104160007B689B691B0C03F004017B685B6A03F0AE
:1041700010027B681B680A435A607B681B68DA6917
:104180007B681B6822F40062DA617B6800225A6552
:104190007B68012283F85120002318460837BD466A
:1041A00080BD80B588B000AFF860B9603B60134651
:1041B000FB80FDF7DDFBF861FB887B83FB6893F8F0
:1041C0005130DBB2012B01D002232AE1BB68002B66
:1041D00002D0FB88002B01D1012322E1FB6893F878
:1041E0005030012B01D102231BE1FB68012283F82F
:1041F0005020FB68032283F85120FB6800225A6597
:10420000FB68BA681A63FB68FA889A86FB68FA88C2
:10421000DA86FB6800229A63FB6800229A87FB68B3
:104220000022DA87FB6800225A64FB6800221A64C5
:10423000FB689B68B3F5004F0FD1FB681B681A68D9
:10424000FB681B6822F040021A60FB681B681A6852
:10425000FB681B6842F480421A60FB681B681B689D
:1042600003F04003402B07D0FB681B681A68FB680B
:104270001B6842F040021A60FB68DB68B3F5006F10
:1042800052D1FB685B68002B02D07B8B012B45D1A0
:10429000FB681B6B1A88FB681B68DA60FB681B6B8A
:1042A0009A1CFB681A63FB68DB8E9BB2013B9AB2D7
:1042B000FB68DA8632E0FB681B689B6803F0020348
:1042C000022B12D1FB681B6B1A88FB681B68DA6033
:1042D000FB681B6B9A1CFB681A63FB68DB8E9BB246
:1042E000013B9AB2FB68DA8618E0FDF741FB024613
:1042F000FB69D31A3A689A4203D83B68B3F1FF3F8F
:1043000002D13B68002B09D1FB68012283F85120C0
:10431000FB68002283F85020032382E0FB68DB8ED9
:104320009BB2002BC7D153E0FB685B68002B02D027
:104330007B8B012B47D1FB681A6BFB681B680C3326
:1043400012781A70FB681B6B5A1CFB681A63FB68B7
:10435000DB8E9BB2013B9AB2FB68DA8633E0FB68E6
:104360001B689B6803F00203022B13D1FB681A6BD6
:10437000FB681B680C3312781A70FB681B6B5A1CA5
:10438000FB681A63FB68DB8E9BB2013B9AB2FB6849
:10439000DA8618E0FDF7ECFA0246FB69D31A3A68B0
:1043A0009A4203D83B68B3F1FF3F02D13B68002B30
:1043B00009D1FB68012283F85120FB68002283F8B1
:1043C000502003232DE0FB68DB8E9BB2002BC6D16F
:1043D000FA693968F86800F0B1F80346002B02D09A
:1043E000FB6820225A65FB689B68002B0AD10023DA
:1043F0007B61FB681B68DB687B61FB681B689B68F3
:104400007B617B69FB68012283F85120FB680022F5
:1044100083F85020FB685B6D002B01D0012300E086
:10442000002318462037BD4680BD000080B588B007
:1044300000AFF860B9603B601346FB71FDF798FA76
:104440000246BB6A9B1A3A681344FB61FDF790FA77
:10445000B861394B1B685B011B0DFA6902FB03F362
:104460007B6154E03B68B3F1FF3F50D0FDF780FA29
:104470000246BB69D31AFA699A4202D9FB69002B3A
:104480003DD1FB681B685A68FB681B6822F0E0029C
:104490005A60FB685B68B3F5827F11D1FB689B684B
:1044A000B3F5004F04D0FB689B68B3F5806F07D16C
:1044B000FB681B681A68FB681B6822F040021A60E0
:1044C000FB689B6AB3F5005F0FD1FB681B681A6835
:1044D000FB681B6822F400521A60FB681B681A68AC
:1044E000FB681B6842F400521A60FB68012283F8E3
:1044F0005120FB68002283F85020032317E07B69DA
:10450000002B01D10023FB617B69013B7B61FB68D0
:104510001B689A68BB681340BA689A420CBF0123B3
:104520000023DBB21A46FB799A429BD1002318463E
:104530002037BD4680BD00BF0000002080B588B098
:1045400002AFF860B9607A607B680093BB680122B3
:104550000221F868FFF76AFF0346002B07D0FB68CB
:104560005B6D43F02002FB685A65032332E01B4B6E
:104570001B681B4AA2FB03235B0D4FF47A7202FBFC
:1045800003F37B61FB685B68B3F5827F12D17B68C4
:104590000093BB6800228021F868FFF747FF0346BD
:1045A000002B16D0FB685B6D43F02002FB685A6558
:1045B00003230FE07B69002B0AD07B69013B7B6101
:1045C000FB681B689B6803F08003802BF2D000E03F
:1045D00000BF002318461837BD4680BD00000020EC
:1045E000819F5E1680B582B000AF78607B68002B3B
:1045F00001D1012342E07B6893F84130DBB2002B0C
:1046000006D17B68002283F840207868FCF7E2FB43
:104610007B68242283F841207B681B68DA687B680A
:104620001B6822F40052DA60786800F085FF7B682E
:104630001B681A697B681B6822F490421A617B68C8
:104640001B685A697B681B6822F02A025A617B68E2
:104650001B68DA687B681B6842F40052DA607B688A
:1046600000225A647B68202283F841207B68202244
:1046700083F842207B6800225A63002318460837DB
:10468000BD4680BD80B58AB002AFF860B9603B60BE
:104690001346FB8000237B61FB6893F84130DBB25B
:1046A000202B75D1BB68002B02D0FB88002B01D1D9
:1046B00001236EE0FB6800225A64FB68212283F824
:1046C0004120FDF755F97861FB68FA889A84FB6808
:1046D000FA88DA84FB689B68B3F5805F08D1FB68D1
:1046E0001B69002B04D10023FB61BB68BB6103E0A5
:1046F000BB68FB610023BB612EE03B6800937B69D4
:1047000000228021F86800F05DFC0346002B05D0F4
:10471000FB68202283F8412003233AE0FB69002B49
:104720000BD1BB691B881A46FB681B68C2F30802E1
:104730005A60BB690233BB6107E0FB691A78FB680A
:104740001B685A60FB690133FB61FB68DB8C9BB221
:10475000013B9AB2FB68DA84FB68DB8C9BB2002BCE
:10476000CBD13B6800937B6900224021F86800F0C0
:1047700029FC0346002B05D0FB68202283F841204A
:10478000032306E0FB68202283F84120002300E099
:10479000022318462037BD4680BD80B58CB000AFDF
:1047A000F860B9601346FB80FB6893F84230DBB2D7
:1047B000202B4AD1BB68002B02D0FB88002B01D1F3
:1047C000012343E0FB6801221A63FB6800225A635D
:1047D000FB881A46B968F86800F04EFC034687F873
:1047E0002F3097F82F30002B2CD1FB681B6B012B3F
:1047F00025D100233B61FB681B681B683B61FB689C
:104800001B685B683B613B69FB681B680C33BB61E1
:10481000BB6953E8003F7B617B6943F01003BB62D7
:10482000FB681B680C33BA6A7A623B62396A7A6A3F
:1048300041E80023FB61FB69002BE5D102E0012385
:1048400087F82F3097F82F3000E0022318463037D2
:10485000BD4680BD80B5BAB000AF78607B681B688C
:104860001B68C7F8E4307B681B68DB68C7F8E0307A
:104870007B681B685B69C7F8DC300023C7F8D83059
:104880000023C7F8D430D7F8E43003F00F03C7F89B
:10489000D830D7F8D830002B0FD1D7F8E43003F058
:1048A0002003002B09D0D7F8E03003F02003002BC1
:1048B00003D0786800F081FD5BE2D7F8D830002B98
:1048C00000F0DE80D7F8DC3003F00103002B06D1C6
:1048D000D7F8E03003F49073002B00F0D180D7F8C4
:1048E000E43003F00103002B0BD0D7F8E03003F4E1
:1048F0008073002B05D07B685B6C43F001027B6802
:104900005A64D7F8E43003F00403002B0BD0D7F837
:10491000DC3003F00103002B05D07B685B6C43F0B7
:1049200002027B685A64D7F8E43003F00203002BDC
:104930000BD0D7F8DC3003F00103002B05D07B68E7
:104940005B6C43F004027B685A64D7F8E43003F0F0
:104950000803002B11D0D7F8E03003F02003002B20
:1049600005D1D7F8DC3003F00103002B05D07B68BC
:104970005B6C43F008027B685A647B685B6C002BBD
:1049800000F0F281D7F8E43003F02003002B08D0C8
:10499000D7F8E03003F02003002B02D0786800F055
:1049A0000CFD7B681B685B6903F04003402B0CBF68
:1049B00001230023DBB2C7F8D4307B685B6C03F0C3
:1049C0000803002B03D1D7F8D430002B4FD07868E0
:1049D00000F014FC7B681B685B6903F04003402B0C
:1049E00041D17B681B681433C7F89C30D7F89C30E2
:1049F00053E8003FC7F89830D7F8983023F04003C9
:104A0000C7F8D0307B681B681433D7F8D020C7F8BC
:104A1000A820C7F8A430D7F8A410D7F8A82041E8F8
:104A20000023C7F8A030D7F8A030002BD9D17B687D
:104A3000DB6B002B13D07B68DB6B7E4A1A657B68CF
:104A4000DB6B1846FDF74CFA0346002B16D07B684B
:104A5000DB6B1B6D7A68D26B104698470EE0786866
:104A600000F0A8F90AE0786800F0A4F906E0786898
:104A700000F0A0F97B6800225A6475E100BF73E181
:104A80007B681B6B012B40F04F81D7F8E43003F0BB
:104A90001003002B00F04881D7F8E03003F010033A
:104AA000002B00F041810023BB607B681B681B6802
:104AB000BB607B681B685B68BB60BB687B681B680E
:104AC0005B6903F04003402B40F0B6807B68DB6BF2
:104AD0001B685B68A7F8BE30B7F8BE30002B00F04B
:104AE00045817B689B8DB7F8BE209A4280F03E815D
:104AF0007B68B7F8BE20DA857B68DB6BDB69B3F5D2
:104B0000807F00F088807B681B680C33C7F8883092
:104B1000D7F8883053E8003FC7F88430D7F884309E
:104B200023F48073C7F8B8307B681B680C33D7F860
:104B3000B820C7F89420C7F89030D7F89010D7F86D
:104B4000942041E80023C7F88C30D7F88C30002B34
:104B5000D9D17B681B6814337B677B6F53E8003FB8
:104B60003B673B6F23F00103C7F8B4307B681B68D9
:104B70001433D7F8B420C7F88020FB67F96FD7F853
:104B8000802041E80023BB67BB6F002BE1D17B682D
:104B90001B6814333B663B6E53E8003FFB65FB6DBF
:104BA00023F04003C7F8B0307B681B681433D7F894
:104BB000B020FA66BB66B96EFA6E41E800237B66E8
:104BC0007B6E002BE3D17B68202283F842207B6838
:104BD00000221A637B681B680C33FB64FB6C53E890
:104BE000003FBB64BB6C23F01003C7F8AC307B689C
:104BF0001B680C33D7F8AC20BA657B65796DBA6D4C
:104C000041E800233B653B6D002BE3D17B68DB6B08
:104C10001846FDF7F5F87B6802225A637B689A8D87
:104C20007B68DB8D9BB2D31A9BB219467868FBF781
:104C3000EFFD9BE0C35200087B689A8D7B68DB8D9B
:104C40009BB2D31AA7F8CE307B68DB8D9BB2002BCA
:104C500000F08E80B7F8CE30002B00F089807B68A2
:104C60001B680C33BB63BB6B53E8003F7B637B6B00
:104C700023F49073C7F8C8307B681B680C33D7F8EF
:104C8000C8207A643B64396C7A6C41E80023FB638A
:104C9000FB6B002BE3D17B681B6814337B627B6A60
:104CA00053E8003F3B623B6A23F00103C7F8C4307E
:104CB0007B681B681433D7F8C4203A63FB62F96A37
:104CC0003A6B41E80023BB62BB6A002BE3D17B68EF
:104CD000202283F842207B6800221A637B681B68CD
:104CE0000C333B613B6953E8003FFB60FB6823F0FA
:104CF0001003C7F8C0307B681B680C33D7F8C0209E
:104D0000FA61BB61B969FA6941E800237B617B699B
:104D1000002BE3D17B6802225A63B7F8CE301946E4
:104D20007868FBF775FD23E0D7F8E43003F08003E3
:104D3000002B09D0D7F8E03003F08003002B03D01C
:104D4000786800F0D2FA14E0D7F8E43003F04003BA
:104D5000002B0ED0D7F8E03003F04003002B08D032
:104D6000786800F012FB04E000BF02E000BF00E042
:104D700000BFE837BD4680BD80B483B000AF786027
:104D800000BF0C37BD465DF8047B704780B483B02C
:104D900000AF786000BF0C37BD465DF8047B7047FC
:104DA00080B483B000AF786000BF0C37BD465DF8BB
:104DB000047B704780B483B000AF786000BF0C37CD
:104DC000BD465DF8047B704780B59CB000AF78604D
:104DD0007B689B6BFB667B681B681B6803F48073B6
:104DE000002B72D1FB6E0022DA85FB6E1B680C3340
:104DF000FB64FB6C53E8003FBB64BB6C23F4807323
:104E0000BB66FB6E1B680C33BA6EBA657B65796D49
:104E1000BA6D41E800233B653B6D002BE5D1FB6E8D
:104E20001B681433BB63BB6B53E8003F7B637B6B36
:104E300023F001037B66FB6E1B6814337A6E7A6481
:104E40003B64396C7A6C41E80023FB63FB6B002BFD
:104E5000E5D1FB6E1B6814337B627B6A53E8003F2D
:104E60003B623B6A23F040033B66FB6E1B681433D6
:104E70003A6E3A63FB62F96A3A6B41E80023BB621F
:104E8000BB6A002BE5D1FB6E202283F84220FB6E2B
:104E90001B6B012B19D1FB6E1B680C333B613B690B
:104EA00053E8003FFB60FB6823F01003FB65FB6EDB
:104EB0001B680C33FA6DFA61BB61B969FA6941E8A4
:104EC00000237B617B69002BE5D1FB6E00225A63D6
:104ED000FB6E1B6B012B06D1FB6E9B8D1946F86E8A
:104EE000FBF796FC02E0F86EFFF750FF00BF70374B
:104EF000BD4680BD80B584B000AF78607B689B6B99
:104F0000FB60FB6801225A63FB681B6B012B08D115
:104F1000FB689B8D5B089BB21946F868FBF778FC31
:104F200002E0F868FFF73CFF00BF1037BD4680BDC8
:104F300080B584B000AF78600023FB607B689B6B1A
:104F4000BB60BB681B685B6903F08003802B0CBFF0
:104F500001230023DBB2FB60BB6893F84130DBB276
:104F6000212B08D1FB68002B05D0BB680022DA8416
:104F7000B86800F01BF9BB681B685B6903F040036D
:104F8000402B0CBF01230023DBB2FB60BB6893F80E
:104F90004230DBB2222B08D1FB68002B05D0BB6866
:104FA0000022DA85B86800F029F9BB685B6C43F031
:104FB0001002BB685A64B868FFF7FCFE00BF1037E8
:104FC000BD4680BD80B586B000AFF860B9603B607B
:104FD0001346FB713BE03B6AB3F1FF3F37D0FCF770
:104FE000C7FC02463B68D31A3A6A9A4202D33B6A2C
:104FF000002B01D103233AE0FB681B68DB6803F058
:105000000403002B23D0BB68802B20D0BB68402B2F
:105010001DD0FB681B681B6803F00803082B16D122
:1050200000237B61FB681B681B687B61FB681B6856
:105030005B687B617B69F86800F0E0F8FB68082238
:105040005A64FB68002283F8402001230FE0FB68CC
:105050001B681A68BB681340BA689A420CBF0123E8
:105060000023DBB21A46FB799A42B4D000231846DB
:105070001837BD4680BD000080B598B000AFF8601D
:10508000B9601346FB80BA68FB689A62FB68FA88CD
:105090009A85FB6800225A64FB68222283F842202A
:1050A000FB68DB6B3E4ADA63FB68DB6B3D4A1A64E4
:1050B000FB68DB6B3C4ADA64FB68DB6B00221A6539
:1050C00007F10803FB65FB68D86BFB681B680433BA
:1050D0001946FB6D1A68FB88FCF73AFE00233B611A
:1050E000FB681B681B683B61FB681B685B683B6176
:1050F0003B69FB681B69002B19D0FB681B680C33EC
:105100003B643B6C53E8003FFB63FB6B43F48073F1
:10511000BB65FB681B680C33BA6DFA64BB64B96C81
:10512000FA6C41E800237B647B6C002BE5D1FB68C3
:105130001B681433FB62FB6A53E8003FBB62BB6A27
:1051400043F001037B65FB681B6814337A6DBA6317
:105150007B63796BBA6B41E800233B633B6B002BAD
:10516000E5D1FB681B681433BB61BB6953E8003FA2
:105170007B617B6943F040033B65FB681B6814332C
:105180003A6D7A623B62396A7A6A41E80023FB61D0
:10519000FB69002BE5D1002318466037BD4680BD72
:1051A000C94D0008F54E0008314F000880B489B0A1
:1051B00000AF78607B681B680C33FB60FB6853E8CA
:1051C000003FBB60BB6823F0C003FB617B681B68CA
:1051D0000C33FA69BA617B617969BA6941E80023E5
:1051E0003B613B69002BE5D17B68202283F841209D
:1051F00000BF2437BD465DF8047B704780B495B08E
:1052000000AF78607B681B680C337B637B6B53E873
:10521000003F3B633B6B23F49073FB647B681B682C
:105220000C33FA6C3A64FB63F96B3A6C41E8002387
:10523000BB63BB6B002BE5D17B681B6814333B62FF
:105240003B6A53E8003FFB61FB6923F00103BB6449
:105250007B681B681433BA6CFA62BB62B96AFA6A7B
:1052600041E800237B627B6A002BE5D17B681B6BE6
:10527000012B19D17B681B680C33FB60FB6853E87A
:10528000003FBB60BB6823F010037B647B681B6836
:105290000C337A6CBA617B617969BA6941E80023A1
:1052A0003B613B69002BE5D17B68202283F84220DB
:1052B0007B6800221A6300BF5437BD465DF8047B4B
:1052C000704780B584B000AF78607B689B6BFB60F3
:1052D000FB680022DA85FB680022DA84F868FFF7B1
:1052E00069FD00BF1037BD4680BD80B485B000AFFA
:1052F00078607B6893F84130DBB2212B3ED17B682C
:105300009B68B3F5805F14D17B681B69002B10D1BB
:105310007B681B6AFB60FB681B881A467B681B68FE
:10532000C2F308025A607B681B6A9A1C7B681A6287
:1053300008E07B681B6A591C7A6811621A787B68DE
:105340001B685A607B68DB8C9BB2013B9BB27A681E
:105350001946D184002B0FD17B681B68DA687B6803
:105360001B6822F08002DA607B681B68DA687B6861
:105370001B6842F04002DA60002300E00223184676
:105380001437BD465DF8047B704780B582B000AF2E
:1053900078607B681B68DA687B681B6822F04002D3
:1053A000DA607B68202283F841207868FFF7E4FC0C
:1053B000002318460837BD4680BD80B58CB000AFCD
:1053C00078607B6893F84230DBB2222B40F0AE80ED
:1053D0007B689B68B3F5805F17D17B681B69002BE6
:1053E00013D10023FB627B689B6ABB627B681B68EE
:1053F0005B689BB2C3F308039AB2BB6A1A807B68EE
:105400009B6A9A1C7B689A6226E07B689B6AFB62B7
:105410000023BB627B689B68B3F5805F07D07B6825
:105420009B68002B0AD17B681B69002B06D17B6827
:105430001B685B68DAB2FB6A1A7008E07B681B685D
:105440005B68DBB203F07F03DAB2FB6A1A707B6839
:105450009B6A5A1C7B689A627B68DB8D9BB2013B1E
:105460009BB27A681946D185002B5DD17B681B6899
:10547000DA687B681B6822F02002DA607B681B68B0
:10548000DA687B681B6822F48072DA607B681B68CC
:105490005A697B681B6822F001025A617B682022EE
:1054A00083F842207B6800225A637B681B6B012BC8
:1054B00035D17B6800221A637B681B680C337B61E3
:1054C0007B6953E8003F3B613B6923F010037B623B
:1054D0007B681B680C337A6A3A62FB61F9693A6A45
:1054E00041E80023BB61BB69002BE5D17B681B68E9
:1054F0001B6803F01003102B0AD10023FB607B68AC
:105500001B681B68FB607B681B685B68FB60FB6853
:105510007B689B8D19467868FBF77AF902E078681A
:10552000FFF734FC002302E0002300E002231846CA
:105530003037BD4680BD00002DE9B04FC0B000AF90
:10554000C7F8F400D7F8F4301B681B6923F4405007
:10555000D7F8F430D968D7F8F4301A6840EA010374
:105560001361D7F8F4309A68D7F8F4301B691A43FE
:10557000D7F8F4305B691A43D7F8F430DB6913438A
:10558000C7F8F830D7F8F4301B68DB6823F416410D
:1055900021F00C01D7F8F4301A68D7F8F8300B4333
:1055A000D360D7F8F4301B685B6923F44070D7F8F8
:1055B000F4309969D7F8F4301A6840EA010353616E
:1055C000D7F8F4301A688F4B9A4205D0D7F8F430E8
:1055D0001A688D4B9A4204D1FEF746FDC7F8FC00CD
:1055E00003E0FEF72DFDC7F8FC00D7F8F430DB69C7
:1055F000B3F5004F40F00C81D7F8FC300022C7F81B
:10560000E830C7F8EC20D7E93A4522462B469118F6
:10561000B9655B41FB65D7E91623214612EB01080A
:10562000294643EB01094FF000024FF000034FEA17
:10563000C90343EA58734FEAC80290469946234685
:1056400018EB0303C7F8E0302B4649EB0303C7F818
:10565000E430D7F8F4305B680022C7F8D830C7F8D8
:10566000DC20D7E936120B46DB183B65134642EBCC
:1056700003037B65D7E91423D7E93801FAF7F8FD6E
:1056800002460B46614BA3FB02235B091C01D7F8C2
:10569000FC300022C7F8D030C7F8D420D7E93489CD
:1056A00042464B469118B9645B41FB64D7E912232B
:1056B000414612EB010A494643EB010B4FF0000251
:1056C0004FF000034FEACB0343EA5A734FEACA0292
:1056D00092469B4643461AEB0303C7F8C8304B4635
:1056E0004BEB0303C7F8CC30D7F8F4305B680022EB
:1056F000C7F8C030C7F8C420D7E930120B46DB1812
:105700003B64134642EB03037B64D7E91023D7E9DC
:105710003201FAF7ADFD02460B4611463B4BA3FBA7
:1057200001235B09642202FB03F3CB1ADB0003F1C4
:105730003202364BA3FB02235B095B0003F4F873D0
:105740001C44D7F8FC300022C7F8B830C7F8BC209A
:10575000D7E92E8942464B469118B9635B41FB63FA
:10576000D7E90E2341465118396349464B417B63C3
:105770004FF000024FF00003D7E90CAB5946CB00C5
:10578000514643EA51735146CA0010461946034632
:1057900042469B18C7F8B0304B460A4642EB03031B
:1057A000C7F8B430D7F8F4305B680022C7F8A830E7
:1057B000C7F8AC20D7E92A120B46DB18BB621346A8
:1057C00042EB0303FB62D7E90A23D7E92C01FAF77E
:1057D0004FFD02460B460D4BA3FB02135B096421F0
:1057E00001FB03F3D31ADB003233084AA2FB032385
:1057F0005B0903F00702D7F8F4301B6822449A6073
:1058000006E100BF00100140001401401F85EB516C
:10581000D7F8FC300022C7F8A030C7F8A420D7E999
:10582000288942464B46911839625B417B62D7E931
:10583000082341465418494643EB01054FF0000246
:105840004FF00003EB0043EA5473E20014461D4698
:105850004346E318C7F898304B4645EB0303C7F8B7
:105860009C30D7F8F4305B680022C7F89030C7F856
:1058700094204FF000024FF00003D7E92445294659
:105880008B00214643EA917321468A00D7E926011D
:10589000FAF7EEFC02460B46604BA3FB02235B09C2
:1058A0001C01D7F8FC300022C7F88830C7F88C20DC
:1058B000D7E9228942464B469118B9615B41FB61A9
:1058C000D7E9062341465118396149464B417B616E
:1058D0004FF000024FF00003D7E904AB5946CB006C
:1058E000514643EA51735146CA00104619460346D1
:1058F00042469B18C7F880304B460A4642EB0303EA
:10590000C7F88430D7F8F4305B680022BB67FA67C9
:105910004FF000024FF00003D7E91E8949468B0083
:10592000414643EA917341468A00D7E92001FAF7DC
:105930009FFC02460B461146384BA3FB01235B0933
:10594000642202FB03F3CB1A1B013233334AA2FB5E
:1059500003235B0903F0F0031C44D7F8FC3000225A
:105960003B677A67D7E91C8942464B469118B96074
:105970005B41FB60D7E90223414651183960494633
:105980004B417B604FF000024FF00003D7E900ABC2
:105990005946CB00514643EA51735146CA0010465E
:1059A0001946034642469B18BB664B460A4642EBE5
:1059B0000303FB66D7F8F4305B6800223B667A6627
:1059C0004FF000024FF00003D7E9188949468B00D9
:1059D000414643EA917341468A00D7E91A01FAF732
:1059E00047FC02460B460D4BA3FB02135B096421E7
:1059F00001FB03F3D31A1B013233084AA2FB032332
:105A00005B0903F00F02D7F8F4301B6822449A6058
:105A100000BF07F58077BD46BDE8B08F1F85EB510D
:105A2000002310B50446C0E90033C0E904338360A5
:105A300081814366C2818361194608225C3000F08F
:105A4000F9F90D4B63620D4BA3620D4BE3620D4BF5
:105A500023630D4B24629C4206D003F168029442FA
:105A600002D0D0339C4205D104F15800BDE810406B
:105A700000F058BA10BD00BF855C0008A75C0008A4
:105A8000DF5C0008035D0008A8030020024A034908
:105A9000034800F069B800BF10000020C567000887
:105AA0002000002041680C4B994210B5044601D0FB
:105AB00000F088FEA168094B994202D0204600F010
:105AC00081FEE168064B994204D02046BDE81040B3
:105AD00000F078BE10BD00BFA80300201004002015
